:0C0000000C9465000C9400000C940000AF
:10000C000C9400000C9400000C9400000C94000064
:10001C000C9400000C9400000C9400000C94000054
:10002C000C9400000C9400000C9492000C940000B2
:10003C000C94AF000C9400000C9400000C94000085
:10004C000C9400000C9400001027E80364000A00D4
:10005C000100001000011000010000000000000071
:10006C000000000041542B43574D4F44453D332570
:10007C00630041542B4349504D55583D3125630085
:10008C0041542B4349505345525645523D312C381F
:10009C0038383825630041542B43574A41503F00B0
:1000AC00686579207468657265000100020066005D
:1000BC000800040068000A006002AC000000F8941C
:1000CC00EE27ECBBF1E0FBBFEBBFE5BF8DE0A2E0A0
:1000DC00BB27ED938A95E9F780E098E0A0E6ED93D5
:1000EC000197E9F7E6EBF0E085919591009761F0C7
:1000FC00A591B59105901590BF01F00105900D9259
:10010C000197E1F7FB01F0CFEFE5EDBFE8E0EEBFC3
:10011C00C0E6D2E00C94E100EA93FA93EFB7EA93CD
:10012C001A931BB15CB0E12FEC7189F4E42D43946C
:10013C00F0E0E258FD4F5082E8E0E41509F4442465
:10014C006394E8E0E61519F46624689420F8199194
:10015C0012C0EA93FA93EFB7EA93BB2061F0BA941A
:10016C00E82D8394F0E0EA57FD4FE081ECB9E8E02C
:10017C00E81509F48824E991EFBFF991E9911895F4
:10018C00AA93E8E0EB15E9F3F894BB2011F45D9920
:10019C000DC0E92D9394F0E0EA57FD4FA881A083A0
:1001AC00E8E0E91509F49924B39402C0E881ECB9AC
:1001BC00789421960895E0E0EABBEBBBE0EEE7BB58
:1001CC00E0E0E8BBE4BBE5BBE2E0E1BBE0E0E2BBC6
:1001DC00EBB9E8EDEAB9E6E8E0BDE0E0E0BDE5E06A
:1001EC00E9B90E94FB02E0E7F0E00E940003EEE7B1
:1001FC00F0E00E940003ECE8F0E00E940003E2EA69
:10020C00F0E0FA93EA9380E0A3D12496AAE6B2E058
:10021C0018D0A8ECB0E00E9441037894A0E6B2E0BC
:10022C0010D0A4EFB1E00E944103E1E0E51539F4F0
:10023C00C79B02C0C79801C0C79AE0E35E2EEECF01
:10024C00FFCFBA93AA931A93A981BA81ED91A9838E
:10025C00BA831E2FE03019F0A12F92DFF5CFAAE060
:10026C008FDF188123960895BA93AA931A930A9351
:10027C00AA81BB8112960E945303309759F1AA812F
:10028C00BB8114960E9453038F01309761F00230AA
:10029C00E0E01E0798F0F80131978F01AA81BB812D
:1002AC001496ED93FC93AA81BB811296ED91FD916E
:1002BC003196FE93EE933197AC81A083AA81BB81DA
:1002CC000E945303FF232AF0ED91FD913196FE938A
:1002DC00EE9306C0AA81BB81EFEFFFEFED93FC9389
:1002EC001981088125960895BA93AA9326970E949E
:1002FC00600310E0AC85BD85E0E0F0E0ED93FC938D
:10030C00EA89FB893196EA8BFB8B3197E4912E2F8E
:10031C00E03009F415C1E12FE03039F4253211F445
:10032C0011E002C00E9415030AC1E130A9F4253284
:10033C0019F40E94150302C112E040E000E02D32D6
:10034C0011F401E0FCC02B3211F44BE2F8C0203266
:10035C0011F440E2F4C002C0E23039F450E013E092
:10036C00203311F40068EBC003C0E33009F0E7C0A0
:10037C00203310F02A3308F007C0AAE05A9F502D02
:10038C00E22FE0535E0FDBC0E22FE33649F40E940C
:10039C001C03E889F989A481AA930E942203CEC088
:1003AC00E33741F40E941C030E9428030E94E202DE
:1003BC001E2F0AC0E03761F40E941C030E94280320
:1003CC000E94EE021E2F086002600F7730E034C0EE
:1003DC00E43611F0E93611F4046002C0E53731F46B
:1003EC00E4E5F0E0EE83FF8315E00CC0E83511F492
:1003FC00086003C0E83709F0A1C0EEE5F0E0EE8339
:10040C00FF8314E002FF14C00E941C030E943203FD
:10041C00AB85AA233AF4EA85FB850E944F03EA8751
:10042C00FB874DE2403011F01F5F01C00B7F04C011
:10043C000E941C030E94320300FD11C0151778F4B2
:10044C0007FF08C002FF04C00B7F242F115001C00E
:10045C0020E301C020E20E9415035150EFCF312F51
:10046C0001FF17C03030A1F003FF06C0EE81FF8101
:10047C002591EE83FF8305C0AE81BF812D91AE83A4
:10048C00BF830E941503503009F051503150EACF10
:10049C004BC020E3EE81FF810E945703E887F98768
:1004AC00EE81FF813296EE83FF83E885F985AA857C
:1004BC00BB85AE17BF0750F02F5FA885B985EA85BD
:1004CC00FB85EA1BFB0BEA87FB87EFCF2A3328F06F
:1004DC0003FF02C0295F01C0295D04FD1AC021334E
:1004EC0020F4A885B985119709F409C0531710F0A9
:1004FC0000FF01C013C020E207FF0BC020E3006126
:10050C0002FF07C00B7F4A930E942203503009F070
:10051C0051500E941503503009F051503150A885AC
:10052C00B985129708F0B5CF00FF08C0503031F0F4
:10053C005150E0E2EA930E942203F8CF10E0E0CEA3
:10054C00AC85BD850E9453030E9467036496089591
:10055C00FF92F82E26970E9462030E943A0330976E
:10056C0019F4EFEFFFEF23C0DE0116960E944B0348
:10057C008D010E943A03EE83FF83E0E0E887E98770
:10058C00DE011A960E944B030E945303FA93EA93DE
:10059C001A930A93EAE3F1E0FA93EA93DE011A96CE
:1005AC00A3DE9F01AE81BF81E0E0EC93F9010E94D4
:1005BC0069032A96FF900895BA93AA93A991B991C9
:1005CC00EE27FF276D91662311F03196FBCF08952E
:1005DC00BA93AA93AA27BB27E991F9910590002019
:1005EC0011F01196FBCFFD010895EAE6F2E0FA93C3
:1005FC00EA930895FA93EA93EDE0F0E060E070E09E
:10060C000E945B0384E00E94AE022896AAE6B2E048
:10061C000E942701A8ECB0E00E944103E6CF2A9388
:10062C00AD85BE85EF85F88909950895E889F98926
:10063C003497E88BF98B0895AD85BE85EF85F889E5
:10064C0009950895A889B98914960E945303EE83DD
:10065C00FF83AE81BF810895A889B98914960E9441
:10066C005303EA87FB870895DE011C960E944B0317
:10067C000E9453030895109639F08DEC9AE001977F
:10068C00F1F7A8951197C9F708950024AF0DB01D87
:10069C000895F195E195F0400895ED91FC91119735
:1006AC0008950590F491E02D08957A936A93FA9346
:1006BC00EA9308955A934A933A932A931A930A9376
:1006CC0008955D814C813B812A81198108810895AF
:00000001FF
