S012000066696E616C5F70726F6A2E73726563EE
S11300000C942A000C9447000C9447000C9447006D
S11300100C9447000C9447000C9447000C94470040
S11300200C9447000C9447000C9447000C94470030
S11300300C9447000C941D040C9447000C94470046
S11300400C9447000C9447000C9447000C94470010
S11300500C94470011241FBECFE5D8E0DEBFCDBF0E
S113006011E0A0E6B0E0E4EBF4E102C005900D92EB
S1130070A83EB107D9F722E0A8EEB1E001C01D9275
S1130080A139B207E1F70E9454040C94580A0C9465
S11300900000599A2AB128692AB920B5266820BDDA
S11300A00E94E30520E030E040E051E40E94710644
S11300B09B01AC0160E07BE187E39BE40E943B058C
S11300C020E030E040E85FE30E94CE040E94DE06B8
S11300D00E94AD0569B970BD08958CB95D9BFECFD2
S11300E00895CF93DF93EC018881882331F0219622
S11300F00E946D0089918111FBCFDF91CF9108950A
S11301002F923F924F925F926F927F928F929F9223
S1130110AF92BF92CF92DF92EF92FF920F931F9311
S1130120CF93DF93CDB7DEB72C970FB6F894DEBF2D
S11301300FBECDBF9E838D832DB73EB73C872B87E3
S1130140FC0101900020E9F731975F01A81AB90A70
S1130150BB24A5014150510958874F838DB79EB7E1
S11301608A199B090FB6F8949EBF0FBE8DBFADB719
S1130170BEB711964D018091E8019091E901A091DB
S1130180EA01B091EB01803F984DAF4FBF4F61F44E
S11301901092E8011092E9011092EA011092EB0129
S11301A082E0809390029BC019821A821B821C8277
S11301B02F803884280C391C94012F5F3F4F3A87D5
S11301C0298780919002843011F410929002E0EF1C
S11301D0F1E001900020E9F73197CF01805F914071
S11301E06C01E12CF12CC114D104E104F10409F4F3
S11301F051C089EF90E00197F1F700C00000298118
S11302003A814B815C812F5F3F4F4F4F5F4F298372
S11302103A834B835C83E0EFF1E001900020E9F73F
S11302203197CF01805F9140A0E0B0E0C816D906B5
S1130230EA06FB0679F500EF11E0412C512C32015E
S11302404F81588569857A85C4010E943407D80195
S11302508D918D01F1018083A5016D817E81C401A1
S11302600E944607892B61F41092E8011092E9017B
S11302701092EA011092EB0181E0809390022FC06A
S1130280FFEF4F1A5F0A6F0A7F0A4C145D046E0475
S11302907F04B1F689EF90E00197F1F700C0000008
S11302A029813A814B815C812F5F3F4F4F4F5F4FD4
S11302B029833A834B835C838091E8019091E9011F
S11302C0A091EA01B091EB01805F984DAF4FBF4F11
S11302D0281739074A075B0708F473CF59CF4B85B2
S11302E05C850FB6F8945EBF0FBE4DBF2C960FB65B
S11302F0F894DEBF0FBECDBFDF91CF911F910F9158
S1130300FF90EF90DF90CF90BF90AF909F908F9031
S11303107F906F905F904F903F902F90089580EA68
S1130320E0EFF1E0DF011D928A95E9F71092EF0109
S11303301092EE011092ED011092EC010895CF930A
S1130340DF93EC0184E080939002CE010E94800050
S1130350809190028823C9F3DF91CF9108950E9480
S11303609F0181E090919002923009F480E0089519
S11303700F931F93CF93DF938C01EB010E948F01A6
S1130380C8010E94710088EC90E00E947100CE01C7
S11303900E94AF01DF91CF911F910F9108950F93A8
S11303A01F93CF93DF93CDB7DEB764970FB6F8945E
S11303B0DEBF0FBECDBF8E010F5F1F4F94E1F8016A
S11303C011929A95E9F71F928F9387E690E09F9395
S11303D08F931F930F930E946E071C8A60E670E050
S11303E0C8010E94B8010F900F900F900F900F90CA
S11303F00F9064960FB6F894DEBF0FBECDBFDF91A9
S1130400CF911F910F9108950F931F93CF93DF9373
S1130410CDB7DEB764970FB6F894DEBF0FBECDBF7D
S11304208E010F5F1F4F94E1F80111929A95E9F73D
S11304301F928F9385E790E09F938F931F930F9361
S11304400E946E071C8A60E670E0C8010E94B80131
S11304500F900F900F900F900F900F9064960FB61F
S1130460F894DEBF0FBECDBFDF91CF911F910F91E6
S11304700895CF93C5E060E670E082E890E00E94C2
S1130480B80181110AC060E670E087E890E00E943C
S1130490B801811102C0C15071F7CF9108950F9333
S11304A01F93CF93DF93CDB7DEB764970FB6F8945D
S11304B0DEBF0FBECDBF8E010F5F1F4F94E1F80169
S11304C011929A95E9F71F928F9388E990E09F9390
S11304D08F931F930F930E946E071C8A60E670E04F
S11304E0C8010E94B8010F900F900F900F900F90C9
S11304F00F9064960FB6F894DEBF0FBECDBFDF91A8
S1130500CF911F910F9108950F931F93CF93DF9372
S1130510CDB7DEB7EC970FB6F894DEBF0FBECDBFF4
S11305208E010F5F1F4F2CE3F80111922A95E9F712
S11305307F936F939F938F9385EA90E09F938F931C
S11305401F930F930E946E071CAE68EB70E0C80106
S11305500E94B8010FB6F894DEBF0FBECDBF811163
S113056022C06BEC70E080EF91E00E945407892B6D
S1130570E1F464ED70E080EF91E00E945407892B70
S1130580B1F46DED70E080EF91E00E945407892B87
S113059081F466EE70E080EF91E00E945407892BAD
S11305A051F485E009C080E007C081E005C082E025
S11305B003C083E001C084E0EC960FB6F894DEBF7C
S11305C00FBECDBFDF91CF911F910F91089560E6CB
S11305D070E08FEE90E00E94B8016CEF70E080EF65
S11305E091E00E945407892BD1F465E071E080EF1B
S11305F091E00E945407892BA1F46EE071E080EF32
S113060091E00E945407892B71F467E171E080EF57
S113061091E00E945407892B41F484E0089580E01E
S1130620089581E0089582E0089583E00895DF92BB
S1130630EF92FF920F931F93CF93DF93CDB7DEB763
S1130640EC970FB6F894DEBF0FBECDBFD82E162F91
S1130650072FF42EE52EFE0131968CE3DF011D9267
S11306608A95E9F760E271E089E291E00E94B801BD
S11306708823A1F0EF92FF920F931F9384E391E0FC
S11306809F938F93CE0101969F938F930E946E0741
S11306900FB6F894DEBF0FBECDBF15C0EF92FF9228
S11306A00F931F931F92DF928EE491E09F938F9399
S11306B0CE0101969F938F930E946E070FB6F89414
S11306C0DEBF0FBECDBF6DE671E0CE0101960E9484
S11306D0B801811106C080919002823021F085E03A
S11306E003C081E001C082E0EC960FB6F894DEBF4F
S11306F00FBECDBFDF91CF911F910F91FF90EF906F
S1130700DF900895EF92FF920F931F93CF93DF939F
S1130710CDB7DEB764970FB6F894DEBF0FBECDBF7A
S11307208C01CE0101967C0184E1F70111928A9536
S1130730E9F7F80101900020E9F7CF01801B910B44
S113074001969F938F9387E791E09F938F93FF92F6
S1130750EF920E946E071C8A65E871E0C7010E944F
S1130760B8016DE871E0C8010E94B8010F900F90C4
S11307700F900F900F900F90811106C080919002FE
S1130780823021F085E003C081E001C082E06496FC
S11307900FB6F894DEBF0FBECDBFDF91CF911F918E
S11307A00F91FF90EF9008958091EE019091EF01E9
S11307B02091EC013091ED01821B930B089520915F
S11307C0EC013091ED018091EE019091EF01281739
S11307D0390784F48091EC019091ED019C012F5F25
S11307E03F4F3093ED012093EC01FC01E051FE4FAB
S11307F0808108950E948F0180E008950F931F93D4
S1130800CF93DF93E7EAF1E63197F1F700C00000F8
S1130810C82FD92F00E010E005C00F5F1F4F0E94C2
S1130820DF0389930E94D40318161906B4F3C80190
S1130830DF91CF911F910F9108951F920F920FB6E0
S11308400F9211242F938F939F93EF93FF932FB7BE
S1130850F894E091EE01F091EF018CB1E051FE4F7C
S113086080838091EE019091EF0101969093EF01C6
S11308708093EE018091EE019091EF01803A910511
S113088041F41092EF011092EE011092ED011092DA
S1130890EC012FBFFF91EF919F918F912F910F90BA
S11308A00FBE0F901F901895CF93DF93CDB7DEB78F
S11308B0C85ED3400FB6F894DEBF0FBECDBF60E074
S11308C072EC81E090E00E94490078940E94390221
S11308D08823E1F383E00E944F0280E00E94040237
S11308E080E00E94CF010E94E702833031F469E97D
S11308F071E086EA91E00E9484024BEA51E06EEADC
S113090071E080E00E9417030F2EF6E9BF2EF02D50
S11309108E010F5F1F4F0F2EF1ECCF2EF1E0DF2E73
S1130920F02D0F2EF8ECEF2EF1E0FF2EF02D0E94AB
S1130930E702833039F469E971E086EA91E00E94C4
S1130940840209C0823039F44BEA51E06EEA71E066
S113095080E00E941703F8012B2D11922A95E9F7E4
S1130960DF92CF92FF92EF921F930F930E946E0734
S1130970C8010E948203C8010E94FE038FEB94ED1C
S1130980E1E081509040E040E1F700C000000F90AA
S11309900F900F900F900F900F90C9CF5058BB2716
S11309A0AA270E94E6040C9437060E94290638F010
S11309B00E94300620F039F49F3F19F426F40C9479
S11309C026060EF4E095E7FB0C942006E92F0E941E
S11309D0480658F3BA17620773078407950720F08F
S11309E079F4A6F50C946A060EF4E0950B2EBA2F52
S11309F0A02D0B01B90190010C01CA01A001112421
S1130A00FF27591B99F0593F50F4503E68F11A16CC
S1130A10F040A22F232F342F4427585FF3CF46955D
S1130A2037952795A795F0405395C9F77EF41F167F
S1130A30BA0B620B730B840BBAF09150A1F0FF0F49
S1130A40BB1F661F771F881FC2F70EC0BA0F621F35
S1130A50731F841F48F4879577956795B795F79525
S1130A609E3F08F0B0CF9395880F08F09927EE0FBA
S1130A709795879508950E944F050C9437060E9418
S1130A80300658F00E94290640F029F45F3F29F00F
S1130A900C94200651110C946B060C9426060E94AB
S1130AA0480668F39923B1F3552391F3951B550B2D
S1130AB0BB27AA2762177307840738F09F5F5F4F2D
S1130AC0220F331F441FAA1FA9F335D00E2E3AF06C
S1130AD0E0E832D091505040E695001CCAF72BD084
S1130AE0FE2F29D0660F771F881FBB1F26173707D5
S1130AF04807AB07B0E809F0BB0B802DBF01FF2707
S1130B0093585F4F3AF09E3F510578F00C942006BD
S1130B100C946B065F3FE4F3983ED4F38695779587
S1130B206795B795F7959F5FC9F7880F911D9695BF
S1130B30879597F90895E1E0660F771F881FBB1F1B
S1130B40621773078407BA0720F0621B730B840BC8
S1130B50BA0BEE1F88F7E09508950E94B4056894D7
S1130B60B1110C946B0608950E94500688F09F57AB
S1130B7098F0B92F9927B751B0F0E1F0660F771FBD
S1130B80881F991F1AF0BA95C9F714C0B13091F0B3
S1130B900E946A06B1E008950C946A06672F782FC4
S1130BA08827B85F39F0B93FCCF386957795679578
S1130BB0B395D9F73EF490958095709561957F4FE4
S1130BC08F4F9F4F0895E89409C097FB3EF490958A
S1130BD08095709561957F4F8F4F9F4F9923A9F012
S1130BE0F92F96E9BB279395F695879577956795A1
S1130BF0B795F111F8CFFAF4BB0F11F460FF1BC0E5
S1130C006F5F7F4F8F4F9F4F16C0882311F096E977
S1130C1011C0772321F09EE8872F762F05C0662325
S1130C2071F096E8862F70E060E02AF09A95660FDE
S1130C30771F881FDAF7880F9695879597F9089597
S1130C4097F99F6780E870E060E008959FEF80EC7B
S1130C50089500240A94161617061806090608951E
S1130C6000240A9412161306140605060895092E84
S1130C700394000C11F4882352F0BB0F40F4BF2BF3
S1130C8011F460FF04C06F5F7F4F8F4F9F4F089533
S1130C9057FD9058440F551F59F05F3F71F0479529
S1130CA0880F97FB991F61F09F3F79F0879508950E
S1130CB0121613061406551FF2CF4695F1DF08C02D
S1130CC0161617061806991FF1CF8695710561054A
S1130CD008940895E894BB2766277727CB0197F9F2
S1130CE008950E9484060C9437060E94290638F061
S1130CF00E94300620F0952311F00C9420060C94E9
S1130D00260611240C946B060E94480670F3959FE6
S1130D10C1F3950F50E0551F629FF001729FBB27EE
S1130D20F00DB11D639FAA27F00DB11DAA1F649F8A
S1130D306627B00DA11D661F829F2227B00DA11D3D
S1130D40621F739FB00DA11D621F839FA00D611DC3
S1130D50221F749F3327A00D611D231F849F600DE4
S1130D60211D822F762F6A2F11249F5750409AF00D
S1130D70F1F088234AF0EE0FFF1FBB1F661F771F99
S1130D80881F91505040A9F79E3F510580F00C9464
S1130D9020060C946B065F3FE4F3983ED4F38695EB
S1130DA077956795B795F795E7959F5FC1F7FE2B04
S1130DB0880F911D9695879597F908950E9450067E
S1130DC0E8F09E37E8F09639B8F49E3848F4672F77
S1130DD0782F8827985FF9CF8695779567959395AF
S1130DE09539D0F3B62FB1706B0F711D811D20F4AE
S1130DF087957795679593950C9402070C941D0736
S1130E000C946B06882371F4772321F09850872B78
S1130E10762F07C0662311F499270DC09051862BB5
S1130E2070E060E02AF09A95660F771F881FDAF762
S1130E30880F9695879597F908959F3F31F09150C3
S1130E4020F4879577956795B795880F911D9695AA
S1130E50879597F90895FB01DC0102C001900D927A
S1130E6041505040D8F708956817790768F4FB019A
S1130E70DC01E40FF51FA40FB51F02C002900E920F
S1130E8041505040D8F708950C942B07FB01DC0126
S1130E904150504030F08D910190801919F4002098
S1130EA0B9F7881B990B0895FB0151915523A9F0BB
S1130EB0BF01DC014D9145174111E1F759F4CD0112
S1130EC00190002049F04D9140154111C9F3FB01F7
S1130ED04111EFCF81E090E001970895AEE0B0E0DA
S1130EE0E4E7F7E00C942F0A0D891E8986E08C83D1
S1130EF01A8309838FEF9FE79E838D83AE01475E3C
S1130F005F4F6F89788DCE0101960E949007EF8123
S1130F10F885E00FF11F10822E96E4E00C944B0A42
S1130F20ABE0B0E0E6E9F7E00C94210A6C017B0148
S1130F308A01FC0117821682838181FFCCC1CE0114
S1130F4001963C01F6019381F70193FD859193FF8E
S1130F5081917F01882309F4BAC1853239F493FD64
S1130F60859193FF81917F01853229F4B60190E048
S1130F700E948709E7CF912C212C312CFFE1F31536
S1130F80D8F08B3279F038F4803279F08332A1F4DE
S1130F90232D20611DC08D3261F0803369F4232D2F
S1130FA0216016C0832D8260382EE32DE4603E2E2E
S1130FB02AC0F32DF8601DC037FC2DC020ED280F8A
S1130FC02A3040F08E32B9F436FC81C1232D2064DE
S1130FD0322E19C036FE06C08AE0989E200D1124D8
S1130FE0922E11C0EAE02E9E200D1124222EF32D04
S1130FF0F0623F2E08C08C3621F4832D8068382E91
S113100002C0883641F4F70193FD859193FF8191E5
S11310107F018111B3CF982F9F7D9554933028F48D
S11310200C5F1F4F9FE399830DC0833631F08337E4
S113103071F0833509F059C021C0F801808189839A
S11310400E5F1F4F88248394912C530113C02801F1
S1131050F2E04F0E511CF801A080B18036FE03C0AF
S1131060692D70E002C06FEF7FEFC5010E947C091B
S11310704C018201F32DFF773F2E16C0280122E098
S1131080420E511CF801A080B18036FE03C0692DC8
S113109070E002C06FEF7FEFC5010E9471094C013F
S11310A0F32DF0683F2E820133FC1BC0822D90E0AB
S11310B088169906B0F4B60180E290E00E94870990
S11310C02A94F4CFF50137FC859137FE81915F01B5
S11310D0B60190E00E94870921102A9421E0821A27
S11310E091088114910471F7E8C0843611F08936AF
S11310F041F5F80137FE07C06081718182819381D7
S11311000C5F1F4F08C060817181072E000C880B93
S1131110990B0E5F1F4FF32DFF763F2E97FF09C0EB
S113112090958095709561957F4F8F4F9F4FF06894
S11311303F2E2AE030E0A3010E94C309882E8618BE
S113114045C0853731F4232D2F7EB22E2AE030E0BE
S113115025C0932D997FB92E8F36C1F018F48835A8
S113116079F0B5C0803719F0883721F0B0C0E92F85
S1131170E061BE2EB4FE0DC0FB2DF460BF2E09C08D
S113118034FE0AC0292F2660B22E06C028E030E0C3
S113119005C020E130E002C020E132E0F801B7FEF2
S11311A007C060817181828193810C5F1F4F06C0EB
S11311B06081718180E090E00E5F1F4FA3010E9467
S11311C0C309882E8618FB2DFF773F2E36FE0DC0EF
S11311D0232D2E7FA22E891458F434FE0BC032FC2A
S11311E009C0832D8E7EA82E05C0B82CA32C03C065
S11311F0B82C01C0B92CA4FE0FC0FE01E80DF11DEE
S11312008081803321F49A2D997EA92E09C0A2FEF3
S113121006C0B394B39404C08A2D867809F0B394BD
S1131220A3FC11C0A0FE06C0B21488F4280C922CB2
S11312309B180EC0B21460F4B60180E290E00E94E4
S11312408709B394F7CFB21418F42B1802C0982C62
S1131250212CA4FE10C0B60180E390E00E9487090F
S1131260A2FE17C0A1FC03C088E790E002C088E595
S113127090E0B6010CC08A2D867859F0A1FE02C018
S11312808BE201C080E2A7FC8DE2B60190E00E94EF
S11312908709891438F4B60180E390E00E94870935
S11312A09A94F7CF8A94F301E80DF11D8081B60179
S11312B090E00E9487098110F5CF222009F442CEE4
S11312C0B60180E290E00E9487092A94F6CFF601E5
S11312D08681978102C08FEF9FEF2B96E2E10C94F9
S11312E03D0AFC010590615070400110D8F78095CB
S11312F090958E0F9F1F0895FC01615070400190DE
S11313000110D8F7809590958E0F9F1F08950F9325
S11313101F93CF93DF93FB01238121FD03C08FEF44
S11313209FEF2CC022FF16C046815781248135814E
S11313304217530744F4A081B1819D012F5F3F4FB1
S1131340318320838C93268137812F5F3F4F3783EE
S1131350268314C08B01EC01FB010084F185E02D90
S11313600995892BE1F6D80116968D919C911797D2
S1131370019617969C938E931697CE01DF91CF9189
S11313801F910F910895FA01AA27283051F12031B5
S113139081F1E8946F936E7F6E5F7F4F8F4F9F4F05
S11313A0AF4FB1E03ED0B4E03CD0670F781F891F47
S11313B09A1FA11D680F791F8A1F911DA11D6A0F15
S11313C0711D811D911DA11D20D009F468943F91C8
S11313D02AE0269F11243019305D3193DEF6CF01C7
S11313E00895462F4770405D4193B3E00FD0C9F78D
S11313F0F6CF462F4F70405D4A3318F0495D31FDFA
S11314004052419302D0A9F7EACFB4E0A69597954C
S1131410879577956795BA95C9F700976105710522
S113142008959B01AC010A2E06945795479537956C
S11314302795BA95C9F7620F731F841F951FA01DC6
S113144008952F923F924F925F926F927F928F9264
S11314509F92AF92BF92CF92DF92EF92FF920F933F
S11314601F93CF93DF93CDB7DEB7CA1BDB0B0FB649
S1131470F894DEBF0FBECDBF09942A883988488806
S11314805F846E847D848C849B84AA84B984C8849C
S1131490DF80EE80FD800C811B81AA81B981CE0F93
S11314A0D11D0FB6F894DEBF0FBECDBFED01089578
S10714B0F894FFCFDA
S11314B40D0A4F4B0D0A0041542B4349504D4F44E0
S11314C4453D25640041542B4349504D55583D2511
S11314D46400415445300041540041542B43495065
S11314E4434C4F53453D310041542B43574D4F44D6
S11314F4453D25640041542B43574A41503D222520
S113150473222C22257322000D0A5749464920438D
S11315144F4E4E45435445440D0A002B43574A410C
S1131524503A31002B43574A41503A32002B435727
S11315344A41503A33002B43574A41503A3400410C
S1131544542B434950535441545553005354415418
S113155455533A32005354415455533A3300535477
S1131564415455533A34005354415455533A350075
S11315744349504D55583A300041542B4349504D3A
S113158455583F0041542B43495053544152543D00
S113159422544350222C222573222C2573004154B7
S11315A42B43495053544152543D222564222C2246
S11315B4544350222C222573222C257300434F4E6E
S11315C44E4543540D0A0041542B43495053454E50
S11315D4443D2564000D0A4F4B0D0A3E000D0A5389
S11315E4454E44204F4B0D0A0031333734313337E1
S11315F43831333838004153555300383000617062
S1131604692E7468696E67737065616B2E636F6DA0
S11316140031313939323200474554202F6368612F
S11316246E6E656C732F25732F66656564732F6CFA
S10B16346173742E74787400D4
S9030000FC
